:03000600DFFE22F8
:071F2F007FF5121F367FF55C
:101F3600AE07AF061EEF600C7FF51200067FF512A6
:051F4600000680EE2200
:101FD900AD07AF051DEF6008121F2F121F2F80F2EA
:011FE90022D5
:1012D500CBAECEBBBCAFD6D0BFD8D6C6CFB5CDB3BF
:1012E5000043726561746564204279204D6F6261C7
:1012F5006E674A61636B002020202020C6F4B6AFDC
:10130500D6D02020202020006B65793A202020208F
:1013150020202020202025632563002531367300F9
:1013250020202020202020202020202020202020B8
:1013350000B5B1C7B0CBAECEBBE3D0D6B5C9CFCF24
:10134500DE0025313464636D00B5B1C7B0CBAECED8
:10135500BBE3D0D6B5CFC2CFDE00B5B1C7B0C9F9B2
:10136500C4C5CCBDCDB7B8DFB6C800B5B1C7B0B23E
:10137500E2C1BFC4A3CABDCEAAA3BA0020202020C3
:1013850020202020D6B1BDD3B2E2C1BF002020204D
:101395002020202020BCE4BDD3B2E2C1BF00B5B1FE
:1013A500C7B0B7E4C3F9C6F7D7B4CCACA3BA00202D
:1013B5002020202020202020202020B4F2BFAA00B9
:1013C500202020202020202020202020B9D8B1D581
:1013D50000B5E7D4B43A202020202020202020BFCB
:1013E500AA00B5E7D4B43A202020202020202020D0
:1013F500B9D800CBAECEBB3A253964636D00D5BCF8
:10140500B1C83A2531302E3066252500D7B4CCAC8D
:101415003A202020202020202020C2FA00D7B4CC5A
:10142500AC3A202020202020202020BFD500D7B492
:10143500CCAC3A20202020202020D5FDB3A30030BD
:0F14450031323334353637383941424344454626
:101C670041000E034200070019420004000342002E
:101C7700090028C112C1914100060042000000007E
:051C8700420002000014
:0D202A00A2089295A2099294A20A92962211
:101F9A00C297C2B3C208C209C20A12202A12207208
:061FAA00121AD90220808A
:101E7000121E3E7BFF7A1279D57D017F01120B6F16
:101E80007BFF7A1279E67D017F051214547BFF7A7D
:0F1E90001279FC7D017F07120B6F7F02021FD9B1
:101DA4007B017A00790F7D017F01120B6F7B017A31
:101DB4000079207D017F03120B6F7B017A0079315A
:101DC4007D017F05120B6F7B017A0079427D017FD3
:041DD40007020B6F88
:0A205E00D2B37F3C121F36C2B3223A
:100E870090005874FFF0A37413F0A3740DF0900052
:100E970006E0FFC4540F9014449390005BF0EF54A6
:100EA7000F9014449390005CF07B017A00790F1245
:100EB700075190005874FFF0A37413F0A37420F047
:100EC700A374FFF0A37413F0A37425F07B017A00D9
:100ED700792012075190005874FFF0A37413F0A300
:100EE7007420F0A374FFF0A37413F0A37425F07BB0
:100EF700017A00793112075190005874FFF0A374FA
:100F070013F0A37420F0A374FFF0A37413F0A37479
:100F170025F07B017A007942120751900006E0FF25
:100F2700640C6005EF64427059EFB40C1090000830
:100F3700E004F07016900007E004F0800E900008BF
:100F4700E024FFF0900007E034FFF090005874FFB2
:100F5700F0A37413F0A37420F0A374FFF0A3741329
:100F6700F0A37436F07B017A0079201207519000C4
:100F77005874FFF0A37413F0A37447F090000702AE
:100F87001059900006E0FF64186005EF6452705B2B
:100F9700900006E0B41810900005E004F070169079
:100FA7000004E004F0800E900005E024FFF09000BC
:100FB70004E034FFF090005874FFF0A37413F0A31B
:100FC7007420F0A374FFF0A37413F0A3744EF07BA6
:100FD700017A00792012075190005874FFF0A3742A
:100FE70013F0A37447F09000048067900006E0FFB9
:100FF700645E6005EF644A7067900006E0B45E10B7
:1010070090000AE004F07016900009E004F0800EEA
:1010170090000AE024FFF0900009E034FFF0900010
:101027005874FFF0A37413F0A37420F0A374FFF0B7
:10103700A37413F0A3745FF07B017A007920120781
:101047005190005874FFF0A37413F0A37447F09005
:101057000009E0FFA3E090005BCFF0A3EF021111BE
:10106700900006E06446704EB21290005874FFF08C
:10107700A37413F0A37420F0A374FFF0A37413F008
:10108700A37470F07B017A00792012075190005801
:1010970074FFF0A37413F0A37420F07BFF301206E3
:1010A7007A13798180047A13799290005BEBF0A32D
:1010B700EAF0A3E98054900006E064477056B21145
:1010C70090005874FFF0A37413F0A37420F0A37476
:1010D700FFF0A37413F0A374A3F07B017A007920C7
:1010E70012075190005874FFF0A37413F0A37420F3
:1010F700F07BFF3011067A1379B480047A1379C52F
:1011070090005BEBF0A3EAF0A3E9F07B017A0079AA
:101117003112075112205E121DA4E4900006F07FE1
:0411270028021F3645
:1016F00012201C900006EFF06002D32230B51530A6
:10170000B61230B40F30B70C3093093091063092D6
:10171000032090757F05121F3630B51530B6123094
:10172000B40F30B70C3093093091063092032090FB
:101730005820B508900006740CF0804B20B6089035
:1017400000067442F0804020B4089000067418F03F
:10175000803520B7089000067452F0802A20930844
:10176000900006745EF0801F209108900006744A75
:10177000F080142092089000067446F080092090B2
:0B178000069000067447F0D322C3223D
:0E1A5B00900055EBF0A3EAF0A3E9F0A3EDF044
:101A6900E4A3F0A3F0A3F0A304F0900058E0FF145E
:101A7900F0EF6053900055E0FBA3E0FAA3E0F9A36F
:101A8900E0F582758300120536FFC3943040DBEF21
:101A9900D3943950D5EF24D0FFE434FFFE90005B96
:101AA900E0FAA3E0FDAC0212059790005AE02FF08E
:101AB900900059E03EF07E007F0A12059790005B86
:0F1AC900EEF0A3EFF080A3900059E0FEA3E0FF42
:011AD80022EB
:0A206800D2B37F64121F36C2B32208
:10112B0090005874FFF0A37413F0A37420F07BFFAE
:10113B003097067A1379D680047A1379E790005B9F
:10114B00EBF0A3EAF0A3E9F07B017A00790F120729
:10115B005190005874FFF0A37413F0A374F8F0903F
:10116B000000E0FFA3E090005BCFF0A3EFF07B016A
:10117B007A00792012075190005874FFF0A3741471
:10118B00F0A37403F0900000E0FCA3E0FDE4120177
:10119B00B9E4FBFA79C8784212000EC004C005C04E
:1011AB0006C007900007E0FCA3E0FDE41201B9A81C
:1011BB0004A905AA06AB07D007D006D005D00412A8
:1011CB00011790005B12069A7B017A0079311207A6
:1011DB0051900007E0FEA3E0FFC3900001E09F9059
:1011EB000000E09E4046900003E09F900002E09ECE
:1011FB00403A309702C297D208C209C20A12202A7B
:10120B0090005874FFF0A37413F0A37420F0A37430
:10121B00FFF0A37414F0A37411F07B017A007942F0
:10122B0012075190000E7401F00212C3900004E0FB
:10123B00FEA3E0FFD3900001E09F900000E09E50E2
:10124B0045900003E09F900002E09E5039209702EA
:10125B00D297C208D209C20A12202A90005874FFF2
:10126B00F0A37413F0A37420F0A374FFF0A3741411
:10127B00F0A37422F07B017A00794212075190009F
:10128B000E7402F08032C208C209D20A12202A90D0
:10129B00005874FFF0A37413F0A37420F0A374FF31
:1012AB00F0A37414F0A37433F07B017A007942122B
:1012BB00075190000E7403F0121DA430110B900017
:0A12CB000EE06403600312206822A5
:10164F00E4900053F0A3F0121F9A121E701216F0BE
:10165F005005120E8780F67B017A00790B7F72128C
:10166F00157C50757B017A00790B7D03121A5B9004
:10167F000053EEF0A3EFF0D39400EE940040CE2091
:10168F001238900053E0FEA3E0FF900009E0FCA3A6
:10169F00E0FD9FFFEC9EFE900053F0A3EFF0C3EE32
:1016AF0094005006AE04AF058008900053E0FEA3EF
:1016BF00E0FF900053EEF0A3EFF0900000E0FFA3E7
:1016CF00E0A3CFF0A3EFF0900053E0FFA3E0900072
:1016DF0000CFF0A3EFF012112B7F64121F3602160A
:0116EF005C9E
:10182500E49000CDF0A3F0122072121D34121BB902
:101835001201F29000CDEEF0A3EFF09000CDE0FAAA
:10184500A3E0FB7C007D64FFAE021205A97C007D50
:101855000A1205A9ED2430A3F07C007D0AAF03AE82
:10186500021205A97C007D0A1205A9ED2430A3F01A
:101875009000CDE0FEA3E0FF7C007D0A1205A9EDF6
:1018850024309000D1F07B017A0079CF9000CB74A1
:1018950003F0E4FDFF121C197B017A0079CF7F74F8
:1018A50012157C7FFA121F367FFA121F3602183284
:101C8C004500C134431010014500BC344310100111
:0A1EEC00EBF0A3EAF0A3E9F0C2A7AF
:101EF600E4FEEF3392A0EF25E0FFD2A2A2A1E433E5
:091F06004FFFC2A20EEEB408E97F
:011F0F0022AF
:0C203700C2A7121EF6E4FF121EF6D2A78C
:01204300227A
:091F66007D017F21121F6F7F2213
:101F6F00C2A7121EF6AC07AF05121EF6D2A7AF041A
:011F7F00223F
:031D6F0090005A87
:101D7200121EECAD07E4FC90005DE0FFECC39F5047
:101D82001CE4FF121EF690005AE0FBA3E0FAA3E067
:101D9200F98C82758300EF1205750C80DAD2A7AF39
:011DA200053B
:011DA300221D
:0E1CF3007B017A0079C190005D7405F07F2AB4
:031D010090005AF5
:101D0400121EECAD07E4FC90005DE0FFECC39F50B5
:101D14001A90005AE0FBA3E475F001120614A9F02E
:0F1D2400FA12051DFF121EF60C80DCD2A7AF05C8
:011D3300228D
:07207200C2A3D2A7C2A22203
:101F10007F071220378F202005033004107DFF7FBC
:0F1F200027121F6FE4FD7FE1121F6FD322C32230
:10157C00900056EBF0A3EAF0A3E9F0900055EFF0E1
:10158C0064747058C2A37B017A0079BC90005D74BE
:10159C0005F07F30121D01121CF3900056E0FBA3E6
:1015AC00E0FAA3E0F990005D7403F07FA0121D0136
:1015BC00121F667D0A7F24121F6F7D407F25121F2C
:1015CC006F7D077F26121F6F7D0E7F20121F6FD23B
:1015DC00A37F0A120006121F1050FB22900055E048
:1015EC006472705EC2A3121CF3121F667D407F25CD
:1015FC00121F6F7D037F31121F6F7D077F26121F15
:10160C006F7D0F7F20121F6FD2A37F821200067F87
:10161C00071220378F20300628C2A37DFF7F2712A8
:10162C001F6F900056E0FBA3E0FAA3E0F990005D79
:10163C007403F07F61121D6FE4FD7FE2121F6FD304
:03164C0022C32294
:0D204400438901E4F58CF58AD2A9D2AF22C0
:101BB900122044D2967F0A120006C2963095FDD2B1
:101BC9008C2095FDC28CAF8CEFFEAD8A7C00E42D94
:101BD900FDEC3EFCE41201B99000D212069A900085
:101BE900D2E0FCA3E0FDA3E0FEA3E0FFE4FBFA7969
:101BF9006878421201179000D212069AE4F58CF522
:0F1C09008A9000D2E0FCA3E0FDA3E0FEA3E0FF81
:011C180022A9
:03000B000220864A
:03208600C29532CE
:071C9C004400D60000000027
:101EC600C2A6E4FDC280EF30E704D2818002C2815F
:101ED600D280EF7801088005C333CE33CED8F9FF20
:051EE6000DEDB408DF62
:011EEB0022D4
:0E1DD800E0FBA3E0FAA3E0F912051DFF7E0078
:101DE600D2A6E4FDC280EF30E704D2818002C28130
:101DF600D280EF7801088005C333CE33CED8F9FF01
:051E06000DEDB408DF42
:011E0B0022B4
:101AD900C2A4D285C2A57F14121F36D2A57F1412C3
:101AE9001F367FE27E00121EC67F05121F367F2C2D
:101AF9007E00121EC67F05121F367F2E7E00121E23
:101B0900C67F05121F367F2F7E00121EC67F051263
:101B19001F367F237E00121EC67F817E00121EC6DD
:101B29007F2F7E00121EC67FA27E00121EC67FC8AE
:101B39007E00121EC67FA07E00121EC67F407E0058
:0D1B4900121EC67FAF7E00121EC6D2A4225F
:101E0C00AB05AA04EB1B70011AEF24AFFFE43EFEF6
:101E1C00121EC6EAC4F854F0C8EBC4540F48540F51
:101E2C002410FFE433FE121EC67E00EB540FFF029B
:021E3C001EC6C0
:101E3E00C2A4D285E4FCEC24B0FFE433FE121EC62D
:101E4E007F107E00121EC6E4FFFE121EC6E4FBE4E7
:101E5E00FFFE121DE60BEBB484F50CECB409D7D2E1
:011E6E00A4CF
:011E6F002250
:1018B50090008EEEF0A3EFF0A3ECF0A3EDF0A3EB18
:0718C500F0A3EAF0A3E9F033
:1018CC00C2A4D285E4900097F0A3F0900097E0FEBC
:1018DC00A3E0FFC39402EE9400505B90008FE02FC6
:1018EC00FF90008EE03EFE900090E0FCA3E0FD1225
:1018FC001E0CE4900095F0A3F0900092121DD8906D
:10190C000093E475F0011205FE900096E004F0706F
:10191C0006900095E004F0C3900096E094109000BF
:10192C0095E0940040D3900098E004F0709D9000F6
:08193C0097E004F08095D2A4AD
:011944002280
:1019D10090008EEEF0A3EFF0A3EDF0A3EBF0A3EAFD
:0419E100F0A3E9F096
:1019E500C2A4E4900096F0A3F0900096E0FEA3E078
:1019F500FFC39402EE9400505A90008FE02FFF90A1
:101A0500008EE03EFE900090E0FD7C00121E0CE48E
:101A1500900094F0A3F0900091121DD8900092E4EC
:101A250075F0011205FE900095E004F07006900037
:101A350094E004F0C3900095E09408900094E0943D
:101A45000040D3900097E004F0709E900096E0046B
:051A5500F08096D2A410
:011A5A002269
:081B5600900066EEF0A3EFF031
:101B5E00E024AFFFC2A4ED540F1490006AF0AE055E
:101B6E00EEC4540F2410FC7E00121EC6AF047E007D
:101B7E00121EC6E0FF7E00121EC6E4900068F0A39F
:101B8E00F0121DE0740129F9E43AFA900069E004BC
:101B9E00F07006900068E004F0900068E0FEA3E0AC
:0A1BAE00C39406EE940040D9D2A4BF
:011BB800220A
:101F8000E4FEEF30E704D2838002C283EF25E0FF56
:091F9000C284D2840EEEB408E90B
:011F99002225
:101F4B00E4FFD284FED282C284EF25E0FF3082030D
:0A1F5B000F8000D2840EEEB408EBF4
:011F65002259
:021CAE00AC0781
:101CB000C285D2A4C2847F03121F80AF04121F808A
:101CC000AF05121F80AF03121F80E4FD900094E067
:101CD000FFEDC39F501A121F4B900091E0FBA3E051
:101CE000FAA3E0F98D82758300EF1205750D80DC93
:021CF000D2859B
:011CF20022CF
:100B6F00900055EFF0A3EDF0A3EBF0A3EAF0A3E9AB
:010B7F00F085
:100B8000E4A3F0900057E0FBA3E0FAA3E0F9A3E0B0
:100B9000F582758300120536FFD394005003020ED0
:100BA00086EF94B0407CEFD394F7507690005AE0F3
:100BB0002401FFE433FE8F828E83120536C394A195
:100BC0004060900057A3A3A3E0F58275830012054F
:100BD000362450FFE434FFFE7C007D5E120597E46E
:100BE000FD9000D612069A9000D6E0F8A3E0F9A393
:100BF000E0FAA3E0FBC000C001C002C00390005AAD
:100C0000E02401FFE433FE900057E0FBA3E0FAA3E9
:100C1000E0F98F828E8312053624ADFFE4340202A0
:100C20000CBF900057E0FBA3E0FAA3E0F9A3E0F5C6
:100C300082758300120536FFC394A15003020D7B19
:100C4000EFD394A34003020D7B90005AE02401FFF0
:100C5000E433FE8F828E83120536C394A1500302C3
:100C60000D7B900057A3A3A3E0F5827583001205C6
:100C700036245FFFE434FFFE7C007D5E120597E4BE
:100C8000FD9000D612069A9000D6E0F8A3E0F9A3F2
:100C9000E0FAA3E0FBC000C001C002C00390005A0C
:100CA000E02401FFE433FE900057E0FBA3E0FAA349
:100CB000E0F98F828E83120536245FFFE434FFFE55
:100CC000E4FCFDD003D002D001D000EB2FFFEA3EC0
:100CD000FEED39FDEC38FC9000D612069A9000D655
:100CE000E0FCA3E0FDA3E0FEA3E0FFE47B20FAF933
:100CF000F812062A9000D612069A9000D6A3E0FDBC
:100D0000A3A3E4FFFEE4FC781012068790005BEFDB
:100D1000F0FA9000D6A3A3E0FEA3E4FFE4FDFC7884
:100D20000812068790005CEFF0F99000D6E0FCA373
:100D3000A3E0FEA3E0FF90005DEFF0FBAF02AD018A
:100D40009000917401F0A37400F0A3745EF0A3749A
:100D500020F0121CAE900055E0FF7E00A3E0FD7C69
:100D6000007B017A00795E1218B590005AE02402E7
:100D7000F0900056E02410F0020B83900057E0FB47
:100D8000A3E0FAA3E0F9A3E0F5827583001205362B
:100D9000FFC394205003020E7DEFD3947E400302E4
:020DA0000E7DC6
:100DA200900057A3A3A3E0F58275830012053624B1
:100DB200E0FFE434FFFEE4FCFD9000D612069A90B8
:100DC20000D6E0FCA3E0FDA3E0FEA3E0FFE47B107D
:100DD200FAF9F812062A9000D612069A9000D6E086
:100DE200FCA3E0FDA3E0FEA3E02480FFEE34CFFEEF
:100DF200ED3403FDE43CFC9000D612069A9000D636
:100E0200A3E0FDA3A3E4FFFEE4FC781012068790A2
:100E1200005BEFF0FA9000D6A3A3E0FEA3E4FFE4A8
:100E2200FDFC780812068790005CEFF0F99000D67E
:100E3200E0FCA3A3E0FEA3E0FF90005DEFF0FBAFB8
:100E420002AD019000917401F0A37400F0A3747ECE
:100E5200F0A37410F0121CAE900055E0FF7E00A3C8
:100E6200E0FD7B017A00797E1219D190005AE004EC
:080E7200F0900056E02408F0A6
:0C0E7A00020B8390005AE004F0020B838E
:010E86002249
:10145400900055EFF0A3EDF0A3EBF0A3EAF0A3E9BD
:01146400F097
:10146500E4A3F0900057E0FBA3E0FAA3E0F9A3E0C2
:10147500F582758300120536FFD3940050030215DB
:101485007BEF94205003021572EFD3947E40030244
:021495001572CE
:10149700900057A3A3A3E0F58275830012053624B5
:1014A700E0FFE434FFFEE4FCFD9000D612069A90BC
:1014B70000D6E0FCA3E0FDA3E0FEA3E0FFE47B0889
:1014C700FAF9F812062A9000D612069A9000D6E08A
:1014D700FCA3E0FDA3E0FEA3E024C0FFEE34BFFEC3
:1014E700ED3403FDE43CFC9000D612069A9000D63A
:1014F700A3E0FDA3A3E4FFFEE4FC781012068790A7
:10150700005BEFF0FA9000D6A3A3E0FEA3E4FFE4AC
:10151700FDFC780812068790005CEFF0F99000D682
:10152700E0FCA3A3E0FEA3E0FF90005DEFF0FBAFBC
:1015370002AD019000917401F0A37400F0A3745EF2
:10154700F0A37408F0121CAE900055E0FF7E00A3D4
:10155700E0FD7B017A00795E121B5690005AE00489
:08156700F0900056E02406F0AC
:0C156F0002146890005AE004F0021468B6
:01157B00224D
:0320890002164FED
:10200C007580FFC2A4D2A5C2A600D2A6E580332259
:101FEA0012200C40FBC2A4C2A5D2A68F8000C2A6B2
:011FFA0022C4
:101FFB0012200C40FBD2A4C2A5D2A68F8000C2A691
:01200B0022B2
:101C19009000C6EFF0A3EDF0A3EBF0A3EAF0A3E97F
:011C2900F0CA
:101C2A00E49000CCF09000CBE0FFA3E0FEC39F500D
:101C3A002B9000C6E0FFA3E0FDA3E0FBA3E0FAA31C
:101C4A00E0F98E82758300120536FB121FB09000F0
:0C1C5A00C6E004F09000CCE004F080C96B
:011C6600225B
:101FB000AE07ED7005EE24808003EE24C0FF121FF3
:061FC000EAAF03021FFB63
:101D34007F38121FEA7F05121F367F38121FEA7F91
:101D440005121F367F38121FEA7F05121F367F38AF
:101D5400121FEA7F08121FEA7F01121FEA7F061290
:0B1D64001FEA1F121F367F0C021FEA4F
:0A1CA300C1134100BA00410099008E
:03000B00021FC60B
:101FC600C0E0C083C0829000BBE004F0D082D08322
:031FD600D0E03226
:0300030002178B56
:0D178B00C0E0C083C082C0D075D000C00790
:101798009000BBE0FFC39450500CEF942840079092
:1017A8000099E4F08067900099E0249AF582E43487
:1017B80000F583EFF0900099E004F0E06420704DAC
:1017C8009000BAF09000997410F0900099E0FFC36F
:1017D80094185037749A2FF582E43400F583E0D3D7
:1017E800940940079000BAE04480F0900099E0C363
:1017F80094179000BAE05005C313FF8001FF9000D2
:10180800BAEFF0900099E004F080BFD2139000BBCB
:02181800E4F0FA
:0B181A00D007D0D0D082D083D0E032C5
:0D205100758902E4F58CF58AD2A9D28C22A3
:07207900D288D2A8D2AF22E9
:062080001220790220513C
:0E201C00301308C2139000BAE0FF227F0022AA
:10000E00EC4D6011E8497017ED33EC3304600DE4EC
:10001E00FCFFFEFD22E933E8330470F802025E12A3
:10002E00022958046009E4CC2481500628500902A4
:10003E000268284003020265C0E0EB4A7044B980B2
:10004E0006D0E0FB020254EF4E701CBD8008EBFFA1
:10005E00EAFEE9FD80EBE98DF0A4FEE5F00200F783
:10006E00E9CDF9EAFEEBFFEF89F0A4FCE5F0CE89CD
:10007E00F0A42EFFE435F0CD89F0A42DFEE435F08A
:10008E008067EF4E7005BD80D780C3EF8BF0A4ACB8
:10009E00F0EE8BF0A42CFCE435F0F8EF8AF0A42CF3
:1000AE00E5F038FCE433CB8DF0A42CFCE5F03BF806
:1000BE00EE8AF0A42CFCE5F038F8E433CF89F0A4F6
:1000CE002CFCE5F038CF3400CE89F0A42FFFE5F0FC
:1000DE003EFEE433C98DF0A42EFEE5F039CD8AF054
:1000EE00A42FFFE5F03EFEE43DFD33D0E0FB5007CC
:1000FE000BBB000F020268EC2CFCEF33FFEE33FE5D
:06010E00ED33FD0202408A
:10011400020268EC5D046005E85904700302025EA3
:10012400120229580460F6EC4860F2EC7004FDFEFB
:10013400FF22C860DB2481C85009C39860025006BE
:100144000202659850CAF582E9294B4A7005AB82D0
:1001540002025475F0007C1A7880C3EF9BEE9AED8E
:1001640099400DC3EF9BFFEE9AFEED99FDE842F036
:10017400DC23ACF0D0E0FFD0E0FED0E0FDAB822089
:10018400E7101BEB60BAEC2CFCEF33FFEE33FEED13
:1001940033FD020240E803F830E705C0F075F000D3
:1001A400EF2FFFEE33FEED33FD40B830E7C280AAF7
:1001B40075F020800E75F010800575F0087D007EC6
:1001C400007F003392D530D503120679EC3340100A
:1001D400EF33FFEE33FEED33FDEC33FCD5F0ED22CF
:0E01E400E5F0247EA2D513CC92E7CDCEFF220B
:1001F200EDD2E7CD33EC3392D524814006E4FFFE05
:10020200FDFC22FCE4CFCECDCC24E0501174FF8063
:10021200EDC3CC13CCCD13CDCE13CECF13CF047000
:07022200F030D5DE02067981
:1006EC00E5082458F582E43400F583E005082290EF
:1006FC000055300F03900058E475F0011206A60265
:10070C00051D2008E97F2ED2088018EF540F249085
:10071C00D43440D4FF300C0BEF24BFB41A00500378
:10072C002461FFE50960021509050CE50C70020552
:10073C000B300F0E900055E475F0011206A6EF0277
:10074C000563021E9F7403D20F8003E4C20FF508E9
:10075C009000551206BDE4F509F50BF50CE50960A2
:10076C00077F2012072F80F5750AFFC209C208C245
:10077C000AC20BC20DC20EC2101206FBFF700D3066
:10078C000F057F00120740AF0CAE0B22B4255FC2E1
:10079C00D5C20C1206FBFF24D0B40A00501A75F017
:1007AC000A780930D50508B6FF0106C6A426F6203E
:1007BC00D5047002D20B80D924CFB41A00EF5004A8
:1007CC00C2E5D20C020A32D20980C6D20880C0D24D
:1007DC000A80BCD2D580BAD20D80B47F2012072FEC
:1007EC00200A077401B5090040F11206ECFF12074C
:1007FC002F020769D210D20E80951206ECFB12065E
:10080C00ECFA1206ECF94A4B700679307A0B7BFF46
:10081C00200A2EE509602A7E008E8275830012055F
:10082C003660060EEE650A70F0C2D5EBC0E0EAC089
:10083C00E0E9C0E0EE120A93D0E0F9D0E0FAD0E0A3
:10084C00FB12051DFF60AAEBC0E0EAC0E0E9C0E0C6
:10085C0012072FD0E02401F9D0E03400FAD0E0FBED
:10086C00E50A0460DCD50AD98087D20A80A2120A74
:10087C007560F7E50A700104120273A90A600DE5B0
:10088C000A600914F50A120B1DEF60F3EA30E70257
:10089C00F404C3995079EAF4250A0430E701E4041E
:1008AC00F50A800D120A7560C1EA050A250A1202C2
:1008BC0073EA900084F030E701E4250A04D50A04B9
:1008CC00200D0114120A93E4C0E0120B1D90008459
:1008DC00E0601320E70714F0120717802204F0D011
:1008EC00E014C0E07F00120717E50A600712070E3C
:1008FC00150A800B300D0312070ED0E0020769D0E9
:10090C00E00480C4120A75609EE50A04120273901A
:10091C000084EAF0E50A200D026001042404120AA6
:01092C009337
:10092D0074FF04C0E0120B1D120717E50A200D021B
:10093D00600312070ED0E0B50AE87F45120721903B
:10094D000084E07F2B30E7047F2DF404C0E0120714
:10095D002FD0E075F00A84C0F0120718D0E012070E
:10096D0018020769791080027908C20EC21080083A
:10097D00D2D5790A8004790AC2D5E50A047002F548
:10098D000AE4FAFDFEFF1206ECFC7B0820091312A7
:10099D0006ECFD7B1030080A1206ECFE1206ECFF89
:1009AD007B20EC3382D592D55013C3E43008069FDB
:1009BD00FFE49EFEE42009039DFDE49CFCE4CBF8DE
:1009CD00C209EC700CCFCECDCCE824F8F870F380D2
:1009DD0017C3EF33FFEE33FEED33FDEC33FCEB339A
:1009ED00FB994002FB0FD8E9EB300905F8D0E0C4C4
:1009FD0048B209C0E00AEC4D4E4F78207B0070C222
:100A0D00EAB50A0040BCC0E0120A95D0F0D0E02053
:100A1D000904C4C0E0C4B209C0F0120718D0F0D563
:100A2D00F0EB0207691206C608065309715807D77D
:100A3D004C07D34209754F097D44097D4907EC43A5
:100A4D0009835508B046091045087A470B505007E1
:100A5D00DB2D07DF2E08022B07E3230800200B39BF
:100A6D002A079B48000007FAE50AB4FF03750A063A
:100A7D001206ECFC1206ECFD1206ECFE1206ECFF63
:100A8D0090007D0202B0790AA2D5200B14300D0919
:100A9D00B910020404B9080104A2D5200E025001B8
:100AAD0004200A68920AB509005034C0E07F203056
:100ABD000B197F30A20A720E720D500F120AECC282
:100ACD000AC20EC20DC2107F30800F300D03E9C077
:100ADD00E012072F300D03D0E0F9D0E0B509CC308E
:100AED000D177F30B9100C12072F7F58300C077F70
:100AFD00788003B9080312072F300A057F2D0207EE
:100B0D002F7F202010F87F2B200EF322920A80CF0A
:100B1D007F00B40700500B247DF582E43400F5838B
:100B2D00E0FF22286E756C6C2900D2091206EC309C
:100B3D0009F8C209780930D50108F602079B2D5036
:100B4D004349581206EC2403B405004001E4900B10
:100B5D004B93120720743A120720D20B7509040229
:020B6D0009710C
:10022900E9D2E7C933E833F892D5EDD2E7CD33EC1B
:0702390033FC5002B2D52294
:10024000EC30E7100FBF000C0EBE00080DBD00041F
:100250000BEB6014A2D5EB13FCED92E7FD2274FFCB
:10026000FCFDFEFF22E480F8A2D574FF13FC7D8024
:03027000E480EF38
:10027300F920E73624F950037907E4F42402FBE577
:1002830082158270021583DBF6E024FB501BE960C4
:1002930014E4F0E582158270021583E004F0B40AD9
:0D02A30008E4F0D9EE7401F00A22C2D52261
:1002B000ED33EC3392D5FA602AB4FF33EDC2E77B1D
:1002C000FF60067A0279D5E4227A0279DE20D5042D
:1002D0007A0279D9224E614E002B494E46002D49B3
:1002E0004E4600E47A08F0A3DAFC7B00740722C0D3
:1002F00083C082ECC0E0EDC0E0EEC0E0EFC0E0EA19
:1003000075F010A4CAABF075F04DA42BFBE435F0EA
:10031000FCEA2410FAEB34C5FBEC34D9FCEDC2E75F
:10032000FF75F056A4F42411C5F0F434C58FF0A481
:100330002AE5F03BE43CF020E7141204DDD0E0FFB6
:10034000D0E0FED0E0FDD0E0FC1201178014F404F0
:100350001204DDD0E0FFD0E0FED0E0FDD0E0FC12E2
:10036000000ED082D083E0FAEDD2E7CD33EC332417
:1003700082FBE4C3CF33CFCE33CECD33CD33DBF3EB
:100380007B0775F00A846004F0A31B0AE5F0F0A374
:100390008FF0740AA4FFACF08EF0740AA42CFEACAB
:1003A000F050010C8DF0740AA42CFDE435F0F0A39C
:0503B000DBDE740722F2
:1003B50002025EE86480F8E933E83360110460F016
:1003C500ED33EC337009E8FCE9FDEAFEEBFF2204AE
:1003D50060DED3EB9FEA9EE99DE8C2E78CF0C2F7A9
:1003E50095F0400CE8CCF8E9CDF9EACEFAEBCFFB75
:1003F50012022985D0F05804700320D5B3E80470A3
:10040500075002B2D502026892D5EC0460F7E4CC3D
:10041500C0E0C398F8603B94186008400DD0E0FB3D
:10042500020240E4FBFAC9FC8028E830E406E4C98E
:10043500FBE4CAFCE830E305E4C9CACBFCE8540791
:100445006010F8C3E913F9EA13FAEB13FBEC13FC9C
:10045500D8F130F52FC3E49CFCEF9BFFEE9AFEED3F
:1004650099FDD0E0FBEF4E4D4C701222DB030202EA
:1004750065EC2CFCEF33FFEE33FEED33FDED30E79D
:10048500EB020240EF2BFFEE3AFEED39FDD0E0FB2B
:1004950050130BBB0003020268ED13FDEE13FEEFD4
:0804A50013FFEC13FC020240FE
:1004AD003F8000004120000042C80000447A000057
:1004BD00461C400047C35000497424004B189680D9
:1004CD004CBEBC205A0E1BCA6753C21C749DC5AED0
:1004DD00FB60065407601C232312050BEB54386098
:1004ED00091204F712050612000EECF8EDF9EEFAFA
:1004FD00EFCB22EB12050680F1543803241C900437
:10050D00ADFE93FC0EEE93FD0EEE930ECE93FF22F9
:030000000219459D
:0C194500787FE4F6D8FD75812202198C31
:10051D00BB010689828A83E0225002E722BBFE02DC
:09052D00E32289828A83E493220F
:10053600BB010CE58229F582E5833AF583E022507A
:1005460006E92582F8E622BBFE06E92582F8E222C4
:0D055600E58229F582E5833AF583E49322DE
:10056300BB010689828A83F0225002F722BBFE0177
:02057300F32271
:10057500F8BB010DE58229F582E5833AF583E8F0BC
:10058500225006E92582C8F622BBFE05E92582C868
:02059500F22250
:10059700EF8DF0A4A8F0CF8CF0A428CE8DF0A42E78
:0205A700FE2232
:1005A900BC000BBE0029EF8DF084FFADF022E4CC36
:1005B900F875F008EF2FFFEE33FEEC33FCEE9DECFF
:1005C900984005FCEE9DFE0FD5F0E9E4CEFD22ED45
:1005D900F8F5F0EE8420D21CFEADF075F008EF2F8F
:1005E900FFED33FD4007985006D5F0F222C398FD80
:0505F9000FD5F0EA221D
:1005FE00C5F0F8A3E028F0C5F0F8E5821582700288
:06060E001583E038F02224
:10061400A3F8E0C5F025F0F0E58215827002158399
:06062400E0C838F0E822F6
:10062A00E88FF0A4CC8BF0A42CFCE98EF0A42CFC6F
:10063A008AF0EDA42CFCEA8EF0A4CDA8F08BF0A4ED
:10064A002DCC3825F0FDE98FF0A42CCD35F0FCEB4C
:10065A008EF0A4FEA9F0EB8FF0A4CFC5F02ECD3911
:0F066A00FEE43CFCEAA42DCE35F0FDE43CFC227E
:0E067900C3E49FFFE49EFEE49DFDE49CFC2292
:10068700E8600FECC313FCED13FDEE13FEEF13FF51
:03069700D8F12275
:0C069A00ECF0A3EDF0A3EEF0A3EFF022D3
:1006A600F8E0FBA3A3E0F925F0F0E58215827002DD
:0706B6001583E0FA38F02281
:0906BD00EBF0A3EAF0A3E9F0223E
:1006C600D083D082F8E4937012740193700DA3A3C3
:1006D60093F8740193F5828883E4737402936860D7
:0606E600EFA3A3A380DFD7
:101E9F00EFB40A07740D121EAA740A309811A8998C
:101EAF00B8130CC2983098FDA899C298B811F630A3
:071EBF0099FDC299F599227B
:10195100022089E493A3F8E493A34003F68001F203
:1019610008DFF48029E493A3F85407240CC8C33397
:10197100C4540F4420C8834004F456800146F6DF66
:10198100E4800B0102040810204080901C67E47E73
:10199100019360BCA3FF543F30E509541FFEE4935B
:1019A100A360010ECF54C025E060A840B8E493A322
:1019B100FAE493A3F8E493A3C8C582C8CAC583CA4D
:1019C100F0A3C8C582C8CAC583CADFE9DEE780BE05
:011CAD000036
:00000001FF
